{
  "contractName": "ElesarrTokenSale",
  "abi": [
    {
      "inputs": [
        {
          "internalType": "contract Elesarr",
          "name": "_tokenContract",
          "type": "address"
        },
        {
          "internalType": "uint256",
          "name": "_tokenPrice",
          "type": "uint256"
        }
      ],
      "payable": false,
      "stateMutability": "nonpayable",
      "type": "constructor"
    },
    {
      "anonymous": false,
      "inputs": [
        {
          "indexed": false,
          "internalType": "address",
          "name": "_buyer",
          "type": "address"
        },
        {
          "indexed": false,
          "internalType": "uint256",
          "name": "_amount",
          "type": "uint256"
        },
        {
          "indexed": false,
          "internalType": "uint256",
          "name": "_value",
          "type": "uint256"
        }
      ],
      "name": "Sell",
      "type": "event"
    },
    {
      "constant": true,
      "inputs": [],
      "name": "admin",
      "outputs": [
        {
          "internalType": "address",
          "name": "",
          "type": "address"
        }
      ],
      "payable": false,
      "stateMutability": "view",
      "type": "function"
    },
    {
      "constant": true,
      "inputs": [],
      "name": "tokenContract",
      "outputs": [
        {
          "internalType": "contract Elesarr",
          "name": "",
          "type": "address"
        }
      ],
      "payable": false,
      "stateMutability": "view",
      "type": "function"
    },
    {
      "constant": true,
      "inputs": [],
      "name": "tokenPrice",
      "outputs": [
        {
          "internalType": "uint256",
          "name": "",
          "type": "uint256"
        }
      ],
      "payable": false,
      "stateMutability": "view",
      "type": "function"
    },
    {
      "constant": true,
      "inputs": [],
      "name": "tokenSold",
      "outputs": [
        {
          "internalType": "uint256",
          "name": "",
          "type": "uint256"
        }
      ],
      "payable": false,
      "stateMutability": "view",
      "type": "function"
    },
    {
      "constant": false,
      "inputs": [
        {
          "internalType": "uint256",
          "name": "_numberOfTokens",
          "type": "uint256"
        }
      ],
      "name": "buyToken",
      "outputs": [],
      "payable": true,
      "stateMutability": "payable",
      "type": "function"
    }
  ],
  "bytecode": "0x608060405234801561001057600080fd5b506040516106603803806106608339818101604052604081101561003357600080fd5b810190808051906020019092919080519060200190929190505050336000806101000a81548173ffffffffffffffffffffffffffffffffffffffff021916908373ffffffffffffffffffffffffffffffffffffffff16021790555081600160006101000a81548173ffffffffffffffffffffffffffffffffffffffff021916908373ffffffffffffffffffffffffffffffffffffffff160217905550806002819055505050610579806100e76000396000f3fe608060405260043610610067576000357c0100000000000000000000000000000000000000000000000000000000900480632d296bf11461006c578063519ee19e1461009a57806355a373d6146100c55780637ff9b5961461011c578063f851a44014610147575b600080fd5b6100986004803603602081101561008257600080fd5b810190808035906020019092919050505061019e565b005b3480156100a657600080fd5b506100af610446565b6040518082815260200191505060405180910390f35b3480156100d157600080fd5b506100da61044c565b604051808273ffffffffffffffffffffffffffffffffffffffff1673ffffffffffffffffffffffffffffffffffffffff16815260200191505060405180910390f35b34801561012857600080fd5b50610131610472565b6040518082815260200191505060405180910390f35b34801561015357600080fd5b5061015c610478565b604051808273ffffffffffffffffffffffffffffffffffffffff1673ffffffffffffffffffffffffffffffffffffffff16815260200191505060405180910390f35b6101aa8160025461049d565b34146101b557600080fd5b80600160009054906101000a900473ffffffffffffffffffffffffffffffffffffffff1673ffffffffffffffffffffffffffffffffffffffff166370a08231306040518263ffffffff167c0100000000000000000000000000000000000000000000000000000000028152600401808273ffffffffffffffffffffffffffffffffffffffff1673ffffffffffffffffffffffffffffffffffffffff16815260200191505060206040518083038186803b15801561027157600080fd5b505afa158015610285573d6000803e3d6000fd5b505050506040513d602081101561029b57600080fd5b810190808051906020019092919050505010156102b757600080fd5b600160009054906101000a900473ffffffffffffffffffffffffffffffffffffffff1673ffffffffffffffffffffffffffffffffffffffff1663a9059cbb33836040518363ffffffff167c0100000000000000000000000000000000000000000000000000000000028152600401808373ffffffffffffffffffffffffffffffffffffffff1673ffffffffffffffffffffffffffffffffffffffff16815260200182815260200192505050602060405180830381600087803b15801561037c57600080fd5b505af1158015610390573d6000803e3d6000fd5b505050506040513d60208110156103a657600080fd5b81019080805190602001909291905050506103c057600080fd5b806003600082825401925050819055507fed7a144fad14804d5c249145e3e0e2b63a9eb455b76aee5bc92d711e9bba3e4a338234604051808473ffffffffffffffffffffffffffffffffffffffff1673ffffffffffffffffffffffffffffffffffffffff168152602001838152602001828152602001935050505060405180910390a150565b60035481565b600160009054906101000a900473ffffffffffffffffffffffffffffffffffffffff1681565b60025481565b6000809054906101000a900473ffffffffffffffffffffffffffffffffffffffff1681565b6000808314156104b0576000905061051d565b60008284029050828482816104c157fe5b0414610518576040517f08c379a00000000000000000000000000000000000000000000000000000000081526004018080602001828103825260218152602001806105246021913960400191505060405180910390fd5b809150505b9291505056fe536166654d6174683a206d756c7469706c69636174696f6e206f766572666c6f77a265627a7a723158201465230b919c5cd232e3e9fd31856c0e8aaacdb33b1a04df79228a0aaef315a464736f6c63430005100032",
  "source": "pragma solidity ^0.5.1;\nimport \"./Elesarr.sol\";\n\n\n\n\n\ncontract ElesarrTokenSale{\n    address public admin;\n    Elesarr public tokenContract;\n    uint256 public tokenPrice;\n    uint256 public tokenSold;\n    // using SafeMath for uint256;\n\n    event Sell(address _buyer, uint256 _amount, uint256 _value);\n    constructor(Elesarr _tokenContract, uint256 _tokenPrice) public{\n        // assign an admin\n        // Token Contract\n        // Token Price\n        admin=msg.sender;\n        tokenContract=_tokenContract;\n        tokenPrice = _tokenPrice;\n    }\n    function mul(uint256 a, uint256 b) internal pure returns (uint256) {\n        // Gas optimization: this is cheaper than requiring 'a' not being zero, but the\n        // benefit is lost if 'b' is also tested.\n        // See: https://github.com/OpenZeppelin/openzeppelin-contracts/pull/522\n        if (a == 0) {\n            return 0;\n        }\n\n        uint256 c = a * b;\n        require(c / a == b, \"SafeMath: multiplication overflow\");\n\n        return c;\n    }\n\n    function buyToken(uint256 _numberOfTokens) public payable{\n        // Require that value is equla to tokens\n        // require that contract has enough tokens\n        // require that ta transfer is sucessful\n        // keep track of tokenSold\n        // trigger Sell event\n        // trigger\n        require(msg.value == mul(_numberOfTokens, tokenPrice));\n        // makes sure the contract has enough tokens\n        require(tokenContract.balanceOf(address(this)) >= _numberOfTokens);\n        require(tokenContract.transfer(msg.sender, _numberOfTokens));\n        tokenSold += _numberOfTokens;\n        emit Sell(msg.sender, _numberOfTokens, msg.value);\n    }\n}",
  "sourcePath": "/home/goodness/Development/ethereum/tokens/src/contracts/ElesarrTokenSale.sol",
  "compiler": {
    "name": "solc",
    "version": "0.5.16+commit.9c3226ce.Emscripten.clang"
  },
  "schemaVersion": "3.0.23",
  "updatedAt": "2020-03-14T08:35:00.702Z",
  "networkType": "ethereum",
  "devdoc": {
    "methods": {}
  },
  "userdoc": {
    "methods": {}
  }
}