{
  "contractName": "Elesarr",
  "abi": [
    {
      "inputs": [
        {
          "internalType": "uint256",
          "name": "_totalSupply",
          "type": "uint256"
        },
        {
          "internalType": "string",
          "name": "_name",
          "type": "string"
        },
        {
          "internalType": "string",
          "name": "_symb",
          "type": "string"
        }
      ],
      "payable": false,
      "stateMutability": "nonpayable",
      "type": "constructor"
    },
    {
      "anonymous": false,
      "inputs": [
        {
          "indexed": true,
          "internalType": "address",
          "name": "_owner",
          "type": "address"
        },
        {
          "indexed": true,
          "internalType": "address",
          "name": "_spender",
          "type": "address"
        },
        {
          "indexed": false,
          "internalType": "uint256",
          "name": "_value",
          "type": "uint256"
        }
      ],
      "name": "Approval",
      "type": "event"
    },
    {
      "anonymous": false,
      "inputs": [
        {
          "indexed": true,
          "internalType": "address",
          "name": "_from",
          "type": "address"
        },
        {
          "indexed": true,
          "internalType": "address",
          "name": "_to",
          "type": "address"
        },
        {
          "indexed": false,
          "internalType": "uint256",
          "name": "_value",
          "type": "uint256"
        }
      ],
      "name": "Transfer",
      "type": "event"
    },
    {
      "constant": true,
      "inputs": [
        {
          "internalType": "address",
          "name": "",
          "type": "address"
        },
        {
          "internalType": "address",
          "name": "",
          "type": "address"
        }
      ],
      "name": "allowance",
      "outputs": [
        {
          "internalType": "uint256",
          "name": "",
          "type": "uint256"
        }
      ],
      "payable": false,
      "stateMutability": "view",
      "type": "function"
    },
    {
      "constant": true,
      "inputs": [
        {
          "internalType": "address",
          "name": "",
          "type": "address"
        }
      ],
      "name": "balanceOf",
      "outputs": [
        {
          "internalType": "uint256",
          "name": "",
          "type": "uint256"
        }
      ],
      "payable": false,
      "stateMutability": "view",
      "type": "function"
    },
    {
      "constant": true,
      "inputs": [],
      "name": "name",
      "outputs": [
        {
          "internalType": "string",
          "name": "",
          "type": "string"
        }
      ],
      "payable": false,
      "stateMutability": "view",
      "type": "function"
    },
    {
      "constant": true,
      "inputs": [],
      "name": "standard",
      "outputs": [
        {
          "internalType": "string",
          "name": "",
          "type": "string"
        }
      ],
      "payable": false,
      "stateMutability": "view",
      "type": "function"
    },
    {
      "constant": true,
      "inputs": [],
      "name": "symbol",
      "outputs": [
        {
          "internalType": "string",
          "name": "",
          "type": "string"
        }
      ],
      "payable": false,
      "stateMutability": "view",
      "type": "function"
    },
    {
      "constant": true,
      "inputs": [],
      "name": "totalSupply",
      "outputs": [
        {
          "internalType": "uint256",
          "name": "",
          "type": "uint256"
        }
      ],
      "payable": false,
      "stateMutability": "view",
      "type": "function"
    },
    {
      "constant": false,
      "inputs": [
        {
          "internalType": "address",
          "name": "_to",
          "type": "address"
        },
        {
          "internalType": "uint256",
          "name": "_value",
          "type": "uint256"
        }
      ],
      "name": "transfer",
      "outputs": [
        {
          "internalType": "bool",
          "name": "success",
          "type": "bool"
        }
      ],
      "payable": false,
      "stateMutability": "nonpayable",
      "type": "function"
    },
    {
      "constant": false,
      "inputs": [
        {
          "internalType": "address",
          "name": "_spender",
          "type": "address"
        },
        {
          "internalType": "uint256",
          "name": "_value",
          "type": "uint256"
        }
      ],
      "name": "aprove",
      "outputs": [
        {
          "internalType": "bool",
          "name": "success",
          "type": "bool"
        }
      ],
      "payable": false,
      "stateMutability": "nonpayable",
      "type": "function"
    },
    {
      "constant": false,
      "inputs": [
        {
          "internalType": "address",
          "name": "_from",
          "type": "address"
        },
        {
          "internalType": "address",
          "name": "_to",
          "type": "address"
        },
        {
          "internalType": "uint256",
          "name": "_value",
          "type": "uint256"
        }
      ],
      "name": "transferFrom",
      "outputs": [
        {
          "internalType": "bool",
          "name": "success",
          "type": "bool"
        }
      ],
      "payable": false,
      "stateMutability": "nonpayable",
      "type": "function"
    }
  ],
  "bytecode": "0x60806040526040518060400160405280601081526020017f476f6f647920546f6b656e2076312e3000000000000000000000000000000000815250600390805190602001906200005192919062000293565b503480156200005f57600080fd5b5060405162000f3b38038062000f3b833981810160405260608110156200008557600080fd5b810190808051906020019092919080516040519392919084640100000000821115620000b057600080fd5b83820191506020820185811115620000c757600080fd5b8251866001820283011164010000000082111715620000e557600080fd5b8083526020830192505050908051906020019080838360005b838110156200011b578082015181840152602081019050620000fe565b50505050905090810190601f168015620001495780820380516001836020036101000a031916815260200191505b50604052602001805160405193929190846401000000008211156200016d57600080fd5b838201915060208201858111156200018457600080fd5b8251866001820283011164010000000082111715620001a257600080fd5b8083526020830192505050908051906020019080838360005b83811015620001d8578082015181840152602081019050620001bb565b50505050905090810190601f168015620002065780820380516001836020036101000a031916815260200191505b5060405250505081600190805190602001906200022592919062000293565b5080600290805190602001906200023e92919062000293565b508260008190555082600460003373ffffffffffffffffffffffffffffffffffffffff1673ffffffffffffffffffffffffffffffffffffffff1681526020019081526020016000208190555050505062000342565b828054600181600116156101000203166002900490600052602060002090601f016020900481019282601f10620002d657805160ff191683800117855562000307565b8280016001018555821562000307579182015b8281111562000306578251825591602001919060010190620002e9565b5b5090506200031691906200031a565b5090565b6200033f91905b808211156200033b57600081600090555060010162000321565b5090565b90565b610be980620003526000396000f3fe608060405234801561001057600080fd5b50600436106100b0576000357c01000000000000000000000000000000000000000000000000000000009004806370a082311161008357806370a082311461025f57806395d89b41146102b7578063a9059cbb1461033a578063dd62ed3e146103a0578063f0b7305a14610418576100b0565b806306fdde03146100b557806318160ddd1461013857806323b872dd146101565780635a3b7e42146101dc575b600080fd5b6100bd61047e565b6040518080602001828103825283818151815260200191508051906020019080838360005b838110156100fd5780820151818401526020810190506100e2565b50505050905090810190601f16801561012a5780820380516001836020036101000a031916815260200191505b509250505060405180910390f35b61014061051c565b6040518082815260200191505060405180910390f35b6101c26004803603606081101561016c57600080fd5b81019080803573ffffffffffffffffffffffffffffffffffffffff169060200190929190803573ffffffffffffffffffffffffffffffffffffffff16906020019092919080359060200190929190505050610522565b604051808215151515815260200191505060405180910390f35b6101e461078d565b6040518080602001828103825283818151815260200191508051906020019080838360005b83811015610224578082015181840152602081019050610209565b50505050905090810190601f1680156102515780820380516001836020036101000a031916815260200191505b509250505060405180910390f35b6102a16004803603602081101561027557600080fd5b81019080803573ffffffffffffffffffffffffffffffffffffffff16906020019092919050505061082b565b6040518082815260200191505060405180910390f35b6102bf610843565b6040518080602001828103825283818151815260200191508051906020019080838360005b838110156102ff5780820151818401526020810190506102e4565b50505050905090810190601f16801561032c5780820380516001836020036101000a031916815260200191505b509250505060405180910390f35b6103866004803603604081101561035057600080fd5b81019080803573ffffffffffffffffffffffffffffffffffffffff169060200190929190803590602001909291905050506108e1565b604051808215151515815260200191505060405180910390f35b610402600480360360408110156103b657600080fd5b81019080803573ffffffffffffffffffffffffffffffffffffffff169060200190929190803573ffffffffffffffffffffffffffffffffffffffff169060200190929190505050610a9d565b6040518082815260200191505060405180910390f35b6104646004803603604081101561042e57600080fd5b81019080803573ffffffffffffffffffffffffffffffffffffffff16906020019092919080359060200190929190505050610ac2565b604051808215151515815260200191505060405180910390f35b60018054600181600116156101000203166002900480601f0160208091040260200160405190810160405280929190818152602001828054600181600116156101000203166002900480156105145780601f106104e957610100808354040283529160200191610514565b820191906000526020600020905b8154815290600101906020018083116104f757829003601f168201915b505050505081565b60005481565b6000600460008573ffffffffffffffffffffffffffffffffffffffff1673ffffffffffffffffffffffffffffffffffffffff1681526020019081526020016000205482111561057057600080fd5b600560008573ffffffffffffffffffffffffffffffffffffffff1673ffffffffffffffffffffffffffffffffffffffff16815260200190815260200160002060003373ffffffffffffffffffffffffffffffffffffffff1673ffffffffffffffffffffffffffffffffffffffff168152602001908152602001600020548211156105f957600080fd5b81600460008673ffffffffffffffffffffffffffffffffffffffff1673ffffffffffffffffffffffffffffffffffffffff1681526020019081526020016000206000828254039250508190555081600460008573ffffffffffffffffffffffffffffffffffffffff1673ffffffffffffffffffffffffffffffffffffffff1681526020019081526020016000206000828254019250508190555081600560008673ffffffffffffffffffffffffffffffffffffffff1673ffffffffffffffffffffffffffffffffffffffff16815260200190815260200160002060003373ffffffffffffffffffffffffffffffffffffffff1673ffffffffffffffffffffffffffffffffffffffff168152602001908152602001600020600082825403925050819055508273ffffffffffffffffffffffffffffffffffffffff168473ffffffffffffffffffffffffffffffffffffffff167fddf252ad1be2c89b69c2b068fc378daa952ba7f163c4a11628f55a4df523b3ef846040518082815260200191505060405180910390a3600190509392505050565b60038054600181600116156101000203166002900480601f0160208091040260200160405190810160405280929190818152602001828054600181600116156101000203166002900480156108235780601f106107f857610100808354040283529160200191610823565b820191906000526020600020905b81548152906001019060200180831161080657829003601f168201915b505050505081565b60046020528060005260406000206000915090505481565b60028054600181600116156101000203166002900480601f0160208091040260200160405190810160405280929190818152602001828054600181600116156101000203166002900480156108d95780601f106108ae576101008083540402835291602001916108d9565b820191906000526020600020905b8154815290600101906020018083116108bc57829003601f168201915b505050505081565b600081600460003373ffffffffffffffffffffffffffffffffffffffff1673ffffffffffffffffffffffffffffffffffffffff168152602001908152602001600020541015610998576040517f08c379a00000000000000000000000000000000000000000000000000000000081526004018080602001828103825260108152602001807f4e4f5420454e4f55474820544f4b454e0000000000000000000000000000000081525060200191505060405180910390fd5b81600460003373ffffffffffffffffffffffffffffffffffffffff1673ffffffffffffffffffffffffffffffffffffffff1681526020019081526020016000206000828254039250508190555081600460008573ffffffffffffffffffffffffffffffffffffffff1673ffffffffffffffffffffffffffffffffffffffff168152602001908152602001600020600082825401925050819055508273ffffffffffffffffffffffffffffffffffffffff163373ffffffffffffffffffffffffffffffffffffffff167fddf252ad1be2c89b69c2b068fc378daa952ba7f163c4a11628f55a4df523b3ef846040518082815260200191505060405180910390a392915050565b6005602052816000526040600020602052806000526040600020600091509150505481565b600081600560003373ffffffffffffffffffffffffffffffffffffffff1673ffffffffffffffffffffffffffffffffffffffff16815260200190815260200160002060008573ffffffffffffffffffffffffffffffffffffffff1673ffffffffffffffffffffffffffffffffffffffff168152602001908152602001600020819055508273ffffffffffffffffffffffffffffffffffffffff163373ffffffffffffffffffffffffffffffffffffffff167f8c5be1e5ebec7d5bd14f71427d1e84f3dd0314c0f7b2291e5b200ac8c7c3b925846040518082815260200191505060405180910390a3600190509291505056fea265627a7a723158203e40a4c03c95c25a87abae9bcfd991c74dc1329a3edfa96fe838067d1591dc6e64736f6c63430005100032",
  "source": "pragma solidity^ 0.5.1;\n\ncontract Elesarr{\n    //constructor\n    // set the total number of tokens\n    /// read the total number of tokens\n    // keep track of the balance of each account\n    uint256 public totalSupply;\n    string public name;\n    string public symbol;\n    string public standard=\"Goody Token v1.0\";\n    mapping(address => uint256) public balanceOf;\n    mapping(address => mapping(address => uint256)) public allowance;\n   // allowance\n\n   // transferFrom event\n    event Transfer(address indexed _from,address indexed _to, uint256 _value);\n    event Approval(\n        address indexed _owner,\n        address indexed _spender,\n        uint256 _value\n    );\n    constructor(uint256 _totalSupply,string memory _name,string memory _symb) public{\n        name=_name;\n        symbol =_symb;\n        totalSupply = _totalSupply;\n        balanceOf[msg.sender] = _totalSupply;\n    }\n\n    function transfer(\n            address  _to,\n            uint256 _value) public returns(bool success){\n                require(balanceOf[msg.sender] >= _value, \"NOT ENOUGH TOKEN\");\n                balanceOf[msg.sender] -= _value;\n                balanceOf[_to] += _value;\n                emit Transfer(msg.sender,_to, _value);\n            }\n    function aprove(address _spender, uint256 _value) public returns(bool success){\n        //Allowance\n        // Approve Event\n        allowance[msg.sender][_spender] = _value;\n        emit Approval(msg.sender,_spender, _value);\n        return true;\n    }\n    function transferFrom(address _from, address _to, uint256 _value) public returns(bool success){\n        require(_value <= balanceOf[_from]);\n        require(_value <= allowance[_from][msg.sender]);\n        balanceOf[_from] -= _value;\n        balanceOf[_to] += _value;\n        allowance[_from][msg.sender] -= _value;\n        emit Transfer(_from, _to, _value);\n        return true;\n    }\n    // approve function\n    // transferFrom function\n \n}",
  "sourcePath": "/home/goodness/Development/ethereum/tokens/src/contracts/Elesarr.sol",
  "compiler": {
    "name": "solc",
    "version": "0.5.16+commit.9c3226ce.Emscripten.clang"
  },
  "schemaVersion": "3.0.23",
  "updatedAt": "2020-03-14T08:35:00.697Z",
  "networkType": "ethereum",
  "devdoc": {
    "methods": {}
  },
  "userdoc": {
    "methods": {}
  }
}